{
  "contractName": "hcmcoinTokenFundraiser",
  "abi": [
    {
      "constant": false,
      "inputs": [
        {
          "name": "_beneficiary",
          "type": "address"
        }
      ],
      "name": "setBeneficiary",
      "outputs": [],
      "payable": false,
      "stateMutability": "nonpayable",
      "type": "function"
    },
    {
      "constant": true,
      "inputs": [],
      "name": "individualMaxCapTokens",
      "outputs": [
        {
          "name": "",
          "type": "uint256"
        }
      ],
      "payable": false,
      "stateMutability": "view",
      "type": "function"
    },
    {
      "constant": true,
      "inputs": [],
      "name": "endTime",
      "outputs": [
        {
          "name": "",
          "type": "uint256"
        }
      ],
      "payable": false,
      "stateMutability": "view",
      "type": "function"
    },
    {
      "constant": true,
      "inputs": [],
      "name": "beneficiary",
      "outputs": [
        {
          "name": "",
          "type": "address"
        }
      ],
      "payable": false,
      "stateMutability": "view",
      "type": "function"
    },
    {
      "constant": false,
      "inputs": [
        {
          "name": "_individualMaxCap",
          "type": "uint256"
        }
      ],
      "name": "setIndividualMaxCap",
      "outputs": [],
      "payable": false,
      "stateMutability": "nonpayable",
      "type": "function"
    },
    {
      "constant": false,
      "inputs": [
        {
          "name": "_gasPriceLimit",
          "type": "uint256"
        }
      ],
      "name": "changeGasPriceLimit",
      "outputs": [],
      "payable": false,
      "stateMutability": "nonpayable",
      "type": "function"
    },
    {
      "constant": true,
      "inputs": [],
      "name": "startTime",
      "outputs": [
        {
          "name": "",
          "type": "uint256"
        }
      ],
      "payable": false,
      "stateMutability": "view",
      "type": "function"
    },
    {
      "constant": false,
      "inputs": [],
      "name": "acceptOwnership",
      "outputs": [],
      "payable": false,
      "stateMutability": "nonpayable",
      "type": "function"
    },
    {
      "constant": true,
      "inputs": [],
      "name": "conversionRate",
      "outputs": [
        {
          "name": "",
          "type": "uint256"
        }
      ],
      "payable": false,
      "stateMutability": "view",
      "type": "function"
    },
    {
      "constant": true,
      "inputs": [],
      "name": "owner",
      "outputs": [
        {
          "name": "",
          "type": "address"
        }
      ],
      "payable": false,
      "stateMutability": "view",
      "type": "function"
    },
    {
      "constant": true,
      "inputs": [],
      "name": "gasPriceLimit",
      "outputs": [
        {
          "name": "",
          "type": "uint256"
        }
      ],
      "payable": false,
      "stateMutability": "view",
      "type": "function"
    },
    {
      "constant": true,
      "inputs": [],
      "name": "totalRaised",
      "outputs": [
        {
          "name": "",
          "type": "uint256"
        }
      ],
      "payable": false,
      "stateMutability": "view",
      "type": "function"
    },
    {
      "constant": true,
      "inputs": [],
      "name": "individualMinCap",
      "outputs": [
        {
          "name": "",
          "type": "uint256"
        }
      ],
      "payable": false,
      "stateMutability": "view",
      "type": "function"
    },
    {
      "constant": false,
      "inputs": [
        {
          "name": "_conversionRate",
          "type": "uint256"
        }
      ],
      "name": "setConversionRate",
      "outputs": [],
      "payable": false,
      "stateMutability": "nonpayable",
      "type": "function"
    },
    {
      "constant": true,
      "inputs": [],
      "name": "newOwner",
      "outputs": [
        {
          "name": "",
          "type": "address"
        }
      ],
      "payable": false,
      "stateMutability": "view",
      "type": "function"
    },
    {
      "constant": false,
      "inputs": [
        {
          "name": "_individualMinCap",
          "type": "uint256"
        }
      ],
      "name": "setIndividualMinCap",
      "outputs": [],
      "payable": false,
      "stateMutability": "nonpayable",
      "type": "function"
    },
    {
      "constant": true,
      "inputs": [],
      "name": "hasEnded",
      "outputs": [
        {
          "name": "",
          "type": "bool"
        }
      ],
      "payable": false,
      "stateMutability": "view",
      "type": "function"
    },
    {
      "constant": false,
      "inputs": [
        {
          "name": "_newOwner",
          "type": "address"
        }
      ],
      "name": "transferOwnership",
      "outputs": [],
      "payable": false,
      "stateMutability": "nonpayable",
      "type": "function"
    },
    {
      "constant": true,
      "inputs": [],
      "name": "getConversionRate",
      "outputs": [
        {
          "name": "",
          "type": "uint256"
        }
      ],
      "payable": false,
      "stateMutability": "view",
      "type": "function"
    },
    {
      "constant": true,
      "inputs": [],
      "name": "individualMaxCap",
      "outputs": [
        {
          "name": "",
          "type": "uint256"
        }
      ],
      "payable": false,
      "stateMutability": "view",
      "type": "function"
    },
    {
      "constant": true,
      "inputs": [],
      "name": "token",
      "outputs": [
        {
          "name": "",
          "type": "address"
        }
      ],
      "payable": false,
      "stateMutability": "view",
      "type": "function"
    },
    {
      "inputs": [],
      "payable": false,
      "stateMutability": "nonpayable",
      "type": "constructor"
    },
    {
      "payable": true,
      "stateMutability": "payable",
      "type": "fallback"
    },
    {
      "anonymous": false,
      "inputs": [
        {
          "indexed": false,
          "name": "gasPriceLimit",
          "type": "uint256"
        }
      ],
      "name": "GasPriceLimitChanged",
      "type": "event"
    },
    {
      "anonymous": false,
      "inputs": [
        {
          "indexed": false,
          "name": "_individualMinCap",
          "type": "uint256"
        }
      ],
      "name": "IndividualMinCapChanged",
      "type": "event"
    },
    {
      "anonymous": false,
      "inputs": [
        {
          "indexed": false,
          "name": "_individualMaxCapTokens",
          "type": "uint256"
        }
      ],
      "name": "IndividualMaxCapTokensChanged",
      "type": "event"
    },
    {
      "anonymous": false,
      "inputs": [
        {
          "indexed": false,
          "name": "_conversionRate",
          "type": "uint256"
        }
      ],
      "name": "ConversionRateChanged",
      "type": "event"
    },
    {
      "anonymous": false,
      "inputs": [
        {
          "indexed": true,
          "name": "_address",
          "type": "address"
        },
        {
          "indexed": false,
          "name": "_ethers",
          "type": "uint256"
        },
        {
          "indexed": false,
          "name": "_tokens",
          "type": "uint256"
        }
      ],
      "name": "FundsReceived",
      "type": "event"
    },
    {
      "anonymous": false,
      "inputs": [
        {
          "indexed": true,
          "name": "_oldOwner",
          "type": "address"
        },
        {
          "indexed": true,
          "name": "_newOwner",
          "type": "address"
        }
      ],
      "name": "OwnershipTransfer",
      "type": "event"
    }
  ],
  "bytecode": "0x608060405234801561001057600080fd5b5060008054600160a060020a031916339081179091553061002f61016d565b600160a060020a03928316815291166020820152604080519182900301906000f080158015610062573d6000803e3d6000fd5b5060028054600160a060020a031916600160a060020a03929092169190911790556100b6635b2adc34635b51cec0610d0273eeaa46073964d99b2c95f6f86ed7fd5730f028206401000000006100f5810204565b6100d967016345785d8a0000674563918244f40000640100000000610154810204565b6100f0640ba43b7400640100000000610168810204565b61017d565b8383101561010257600080fd5b6000821161010f57600080fd5b600160a060020a038116151561012457600080fd5b60039390935560049190915560065560058054600160a060020a031916600160a060020a03909216919091179055565b600891909155600981905560065402600a55565b600b55565b604051610d3880610b5683390190565b6109ca8061018c6000396000f30060806040526004361061011c5763ffffffff7c01000000000000000000000000000000000000000000000000000000006000350416631c31f71081146101285780631fe00a15146101495780633197cbb61461017057806338af3eed146101855780636007c836146101b657806365c13fdb146101ce57806378e97925146101e657806379ba5097146101fb5780637ffdf53e146102105780638da5cb5b14610225578063961a929c1461023a578063c5c4744c1461024f578063d1614df314610264578063d2e8049414610279578063d4ee1d9014610291578063daae717c146102a6578063ecb70fb7146102be578063f2fde38b146102e7578063f36089ec14610308578063f5a30cee1461031d578063fc0c546a14610332575b6101263334610347565b005b34801561013457600080fd5b50610126600160a060020a03600435166103db565b34801561015557600080fd5b5061015e610436565b60408051918252519081900360200190f35b34801561017c57600080fd5b5061015e61043c565b34801561019157600080fd5b5061019a610442565b60408051600160a060020a039092168252519081900360200190f35b3480156101c257600080fd5b50610126600435610451565b3480156101da57600080fd5b506101266004356104ac565b3480156101f257600080fd5b5061015e6104fe565b34801561020757600080fd5b50610126610504565b34801561021c57600080fd5b5061015e610589565b34801561023157600080fd5b5061019a61058f565b34801561024657600080fd5b5061015e61059e565b34801561025b57600080fd5b5061015e6105a4565b34801561027057600080fd5b5061015e6105aa565b34801561028557600080fd5b506101266004356105b0565b34801561029d57600080fd5b5061019a61061e565b3480156102b257600080fd5b5061012660043561062d565b3480156102ca57600080fd5b506102d361067f565b604080519115158252519081900360200190f35b3480156102f357600080fd5b50610126600160a060020a0360043516610688565b34801561031457600080fd5b5061015e6106ce565b34801561032957600080fd5b5061015e6106d4565b34801561033e57600080fd5b5061019a6106da565b60006103516106e9565b61035a8261070f565b90506000811161036957600080fd5b60075461037c908363ffffffff61072f16565b6007556103898382610745565b6103938383610811565b60408051348152602081018390528151600160a060020a038616927f363f315f930a17d1266b86a20d6dd34b1cfbc5a9db9f13a65d06a689c3a2af8a928290030190a2505050565b600054600160a060020a031633146103f257600080fd5b600160a060020a038116151561040757600080fd5b6005805473ffffffffffffffffffffffffffffffffffffffff1916600160a060020a0392909216919091179055565b600a5481565b60045481565b600554600160a060020a031681565b600054600160a060020a0316331461046857600080fd5b60098190556006548102600a81905560408051918252517f57abf0427b16049a4b4f5234cd901a0f14c02268a8cf9f578b65440d54382ddb9181900360200190a150565b600054600160a060020a031633146104c357600080fd5b600b8190556040805182815290517f7eccbaf3b6433d499add1a7b8d2301ddca1ce7148e27e05e7c3a10321aba70199181900360200190a150565b60035481565b600154600160a060020a0316331461051b57600080fd5b60015460008054604051600160a060020a0393841693909116917f22500af037c600dd7b720644ab6e358635085601d9ac508ad83eb2d6b2d729ca91a36001546000805473ffffffffffffffffffffffffffffffffffffffff1916600160a060020a03909216919091179055565b60065481565b600054600160a060020a031681565b600b5481565b60075481565b60085481565b600054600160a060020a031633146105c757600080fd5b6105d081610850565b60095415156105de5761061b565b6009548102600a81905560408051918252517f57abf0427b16049a4b4f5234cd901a0f14c02268a8cf9f578b65440d54382ddb9181900360200190a15b50565b600154600160a060020a031681565b600054600160a060020a0316331461064457600080fd5b60088190556040805182815290517f9dc25dd899b96b9c01242eee4610b805084a873af7614e24f0fd3206cacd93329181900360200190a150565b60045442101590565b600054600160a060020a0316331461069f57600080fd5b6001805473ffffffffffffffffffffffffffffffffffffffff1916600160a060020a0392909216919091179055565b60065490565b60095481565b600254600160a060020a031681565b600b5415806106fa5750600b543a11155b151561070557600080fd5b61070d6108af565b565b600061072961071c6106ce565b839063ffffffff6108c616565b92915050565b60008282018381101561073e57fe5b9392505050565b600a5415806107f85750600a54600254604080517f70a08231000000000000000000000000000000000000000000000000000000008152600160a060020a03868116600483015291516107f593869316916370a082319160248083019260209291908290030181600087803b1580156107bd57600080fd5b505af11580156107d1573d6000803e3d6000fd5b505050506040513d60208110156107e757600080fd5b50519063ffffffff61072f16565b11155b151561080357600080fd5b61080d82826108ea565b5050565b600554604051600160a060020a039091169082156108fc029083906000818181858888f1935050505015801561084b573d6000803e3d6000fd5b505050565b600054600160a060020a0316331461086757600080fd5b6000811161087457600080fd5b60068190556040805182815290517fb6e78d5c7115b12c1603fb3c8926acd812db2d83d01f62004c460b33f62a88649181900360200190a150565b6108b7610974565b60085434101561070d57600080fd5b60008282028315806108e257508284828115156108df57fe5b04145b151561073e57fe5b600254604080517f40c10f19000000000000000000000000000000000000000000000000000000008152600160a060020a03858116600483015260248201859052915191909216916340c10f1991604480830192600092919082900301818387803b15801561095857600080fd5b505af115801561096c573d6000803e3d6000fd5b505050505050565b34151561098057600080fd5b6003544210158015610993575060045442105b151561070d57600080fd00a165627a7a723058207ef72984fb66da66b83b61c390902501d0eb18adf7ac02c08ae92244f330df1b002960806040526006805460a060020a60ff021990811690915560088054909116905534801561002c57600080fd5b50604051604080610d3883398101604081815282516020938401518284018352600784527f68636d636f696e000000000000000000000000000000000000000000000000008585019081528351808501909452600384527f48434d00000000000000000000000000000000000000000000000000000000009584019590955283519194909385938593919290916012916100c9916001919061012c565b5081516100dd90600290602085019061012c565b506003805460ff90921660ff19909216919091179055505060068054600160a060020a03928316600160a060020a03199182161790915560078054939092169216919091179055506101c79050565b828054600181600116156101000203166002900490600052602060002090601f016020900481019282601f1061016d57805160ff191683800117855561019a565b8280016001018555821561019a579182015b8281111561019a57825182559160200191906001019061017f565b506101a69291506101aa565b5090565b6101c491905b808211156101a657600081556001016101b0565b90565b610b62806101d66000396000f3006080604052600436106101115763ffffffff7c010000000000000000000000000000000000000000000000000000000060003504166306fdde03811461011657806307546172146101a0578063095ea7b3146101d157806318160ddd1461020957806321afb5ee1461023057806323b872dd14610245578063313ce5671461026f5780633f4ba83a1461029a57806340c10f19146102b15780635c975abb146102d557806370a08231146102ea57806379ba50971461030b5780637e5cd5c1146103205780638456cb59146103355780638da5cb5b1461034a57806395d89b411461035f578063a9059cbb14610374578063d4ee1d9014610398578063dd62ed3e146103ad578063f2fde38b146103d4575b600080fd5b34801561012257600080fd5b5061012b6103f5565b6040805160208082528351818301528351919283929083019185019080838360005b8381101561016557818101518382015260200161014d565b50505050905090810190601f1680156101925780820380516001836020036101000a031916815260200191505b509250505060405180910390f35b3480156101ac57600080fd5b506101b5610482565b60408051600160a060020a039092168252519081900360200190f35b3480156101dd57600080fd5b506101f5600160a060020a0360043516602435610491565b604080519115158252519081900360200190f35b34801561021557600080fd5b5061021e6104bc565b60408051918252519081900360200190f35b34801561023c57600080fd5b506101f56104c2565b34801561025157600080fd5b506101f5600160a060020a03600435811690602435166044356104d2565b34801561027b57600080fd5b506102846104ff565b6040805160ff9092168252519081900360200190f35b3480156102a657600080fd5b506102af610508565b005b3480156102bd57600080fd5b506102af600160a060020a0360043516602435610580565b3480156102e157600080fd5b506101f5610644565b3480156102f657600080fd5b5061021e600160a060020a0360043516610654565b34801561031757600080fd5b506102af61066f565b34801561032c57600080fd5b506102af6106f6565b34801561034157600080fd5b506102af610773565b34801561035657600080fd5b506101b56107f0565b34801561036b57600080fd5b5061012b6107ff565b34801561038057600080fd5b506101f5600160a060020a0360043516602435610857565b3480156103a457600080fd5b506101b561087b565b3480156103b957600080fd5b5061021e600160a060020a036004358116906024351661088a565b3480156103e057600080fd5b506102af600160a060020a03600435166108b5565b60018054604080516020600284861615610100026000190190941693909304601f8101849004840282018401909252818152929183018282801561047a5780601f1061044f5761010080835404028352916020019161047a565b820191906000526020600020905b81548152906001019060200180831161045d57829003601f168201915b505050505081565b600654600160a060020a031681565b60085460009060a060020a900460ff16156104ab57600080fd5b6104b583836108fb565b9392505050565b60005481565b60065460a060020a900460ff1681565b60085460009060a060020a900460ff16156104ec57600080fd5b6104f7848484610961565b949350505050565b60035460ff1681565b600754600160a060020a0316331461051f57600080fd5b60085460a060020a900460ff16151561053757600080fd5b6008805474ff0000000000000000000000000000000000000000191690556040517f7805862f689e2f13df9f062ff482ad3ad112aca9e0847911ed832e158c525b3390600090a1565b600654600160a060020a0316331461059757600080fd5b60065460a060020a900460ff16156105ae57600080fd5b6000546105c1908263ffffffff6109fe16565b6000908155600160a060020a0383168152600460205260409020546105ec908263ffffffff6109fe16565b600160a060020a03831660008181526004602090815260408083209490945583518581529351929391927fddf252ad1be2c89b69c2b068fc378daa952ba7f163c4a11628f55a4df523b3ef9281900390910190a35050565b60085460a060020a900460ff1681565b600160a060020a031660009081526004602052604090205490565b600854600160a060020a0316331461068657600080fd5b600854600754604051600160a060020a0392831692909116907f22500af037c600dd7b720644ab6e358635085601d9ac508ad83eb2d6b2d729ca90600090a36008546007805473ffffffffffffffffffffffffffffffffffffffff1916600160a060020a03909216919091179055565b600654600160a060020a0316331461070d57600080fd5b60065460a060020a900460ff161561072457600080fd5b6006805474ff0000000000000000000000000000000000000000191660a060020a1790556040517faf79b4370f6af9d950564bbe6b81f7f0834c003c455db9248f4e55e6bf865eb790600090a1565b600754600160a060020a0316331461078a57600080fd5b60085460a060020a900460ff16156107a157600080fd5b6008805474ff0000000000000000000000000000000000000000191660a060020a1790556040517f6985a02210a168e66602d3235cb6db0e70f92b3ba4d376a33c0f3d9434bff62590600090a1565b600754600160a060020a031681565b6002805460408051602060018416156101000260001901909316849004601f8101849004840282018401909252818152929183018282801561047a5780601f1061044f5761010080835404028352916020019161047a565b60085460009060a060020a900460ff161561087157600080fd5b6104b58383610a0d565b600854600160a060020a031681565b600160a060020a03918216600090815260056020908152604080832093909416825291909152205490565b600754600160a060020a031633146108cc57600080fd5b6008805473ffffffffffffffffffffffffffffffffffffffff1916600160a060020a0392909216919091179055565b336000818152600560209081526040808320600160a060020a038716808552908352818420869055815186815291519394909390927f8c5be1e5ebec7d5bd14f71427d1e84f3dd0314c0f7b2291e5b200ac8c7c3b925928290030190a350600192915050565b600160a060020a038316600090815260056020908152604080832033845290915281205482111561099157600080fd5b600160a060020a03841660009081526005602090815260408083203384529091529020546109c5908363ffffffff610a2316565b600160a060020a03851660009081526005602090815260408083203384529091529020556109f4848484610a35565b5060019392505050565b6000828201838110156104b557fe5b6000610a1a338484610a35565b50600192915050565b600082821115610a2f57fe5b50900390565b600160a060020a0382161515610a4a57600080fd5b8015801590610a715750600160a060020a0383166000908152600460205260409020548111155b1515610a7c57600080fd5b600160a060020a038316600090815260046020526040902054610aa5908263ffffffff610a2316565b600160a060020a038085166000908152600460205260408082209390935590841681522054610ada908263ffffffff6109fe16565b600160a060020a0380841660008181526004602090815260409182902094909455805185815290519193928716927fddf252ad1be2c89b69c2b068fc378daa952ba7f163c4a11628f55a4df523b3ef92918290030190a35050505600a165627a7a723058200a37a60dd8bb93f9cba3711ad7d90347f20e23decf01e8005343db0942f297af0029",
  "source": "pragma solidity ^0.4.21;\n\n\nimport \"./token/MintableToken.sol\";\n\nimport \"./token/PausableToken.sol\";\nimport \"./fundraiser/MintableTokenFundraiser.sol\";\nimport \"./fundraiser/IndividualCapsFundraiser.sol\";\nimport \"./fundraiser/GasPriceLimitFundraiser.sol\";\n\nimport \"./fundraiser/ForwardFundsFundraiser.sol\";\n\n\n/**\n * @title hcmcoinToken\n */\n \ncontract hcmcoinToken is MintableToken, PausableToken {\n  constructor(address _owner, address _minter)\n    StandardToken(\n      \"hcmcoin\",   // Token name\n      \"HCM\", // Token symbol\n      18  // Token decimals\n    )\n    HasOwner(_owner)\n    MintableToken(_minter)\n    public\n  {\n  }\n}\n\n\n\n/**\n * @title hcmcoinTokenFundraiser\n */\n\ncontract hcmcoinTokenFundraiser is MintableTokenFundraiser, IndividualCapsFundraiser, ForwardFundsFundraiser, GasPriceLimitFundraiser {\n  \n\n  constructor()\n    HasOwner(msg.sender)\n    public\n  {\n    token = new hcmcoinToken(\n      msg.sender,  // Owner\n      address(this)  // The fundraiser is the minter\n    );\n\n    \n\n    initializeBasicFundraiser(\n      1529535540, // Start date = 20 Jun 2018 22:59 UTC\n      1532088000,  // End date = 20 Jul 2018 12:00 UTC\n      3330, // Conversion rate = 3330 HCM per 1 ether\n      0xeeaA46073964D99B2C95F6F86eD7Fd5730F02820     // Beneficiary\n    );\n\n    initializeIndividualCapsFundraiser(\n      (0.1 ether), // Minimum contribution\n      (5 ether)  // Maximum individual cap\n    );\n\n    initializeGasPriceLimitFundraiser(\n        50000000000 // Gas price limit in wei\n    );\n\n    \n\n    \n\n    \n    \n    \n  }\n  \n}\n",
  "sourcePath": "/tmp/tg-build-nkefwzdw.3dt/contracts/Fundraiser.sol",
  "compiler": {
    "name": "solc",
    "version": "0.4.24+commit.e67f0147.Emscripten.clang"
  },
  "schemaVersion": "2.0.0",
  "updatedAt": "2018-06-17T03:13:18.560Z"
}